:400000000080002011000000F1120000F112000008B5044B1A6803F53F5302331A6001F087F900BFFA46004010B5054C237833B9044B13B10448AFF300800123237010BDF0
:400040008881FF1F00000000B44F0000084B10B51BB108490848AFF300800848036803B910BD074B002BFBD0BDE81040184700BF000000008C81FF1FB44F0000C880FF1F7C
:400080000000000010B502F00FF801222B4B1A602B4B1B682BB3294B5B68032B21DD02F01BF8264CA060C0F58033264880FB03201844DB17C3EB601002F08EFDE0600022FF
:4000C0001F4B1A600123236102F01EFA1E4C02460B461E49204603F01FFB204601F0DEFE27E0164B1B6923B3144B5B68032B20DD01F0F2FF114C6061C0F58033114880FB0F
:4001000003201844DB17C3EB601002F065FDA0610023236101220A4B1A6002F0F5F90A4C02460B460A49204603F0F6FA204601F0B5FE024A53680133536010BDA481FF1FCF
:40014000CC80FF1F09CB3D8D1882FF1FB84F0000C84F000038B5002001F064FF002002F059F8104D104C0FCC28606960AA60EB6020682861284601F091FE0DE001F09AF933
:40018000012803D0094BDB69002B05DD012001F085F90122054B1A62044B1B6A002BEDD038BD00BF1882FF1FDC4F0000A481FF1F08B501F0E3F90122014B5A6208BD00BF50
:4001C000A481FF1F08B5002002F01EF8002002F015F8012001F056F90A2001F031F9002001F050F908BD00BF08B5012002F00CF8012002F003F8012001F0BCFF0A2001F06A
:400200001FF9002001F0B6FF08BD00BF08B501F037FF064B1B6813B1FFF7D4FF08BD044B1B690BB1FFF7E0FF08BD00BFCC80FF1FA481FF1F2DE9F84381460E4601F08CFFD5
:400240004CE001F031FF01F047FF294DA860C0F58033284880FB03201844DB17C3EB601002F0BAFC8046E86002F04EF90022224B02F09EF90022214B01F0E8FF02F0AAFB96
:400280001F4C84FB0034C317C3EB6413642404FB1304404602F06AFD1A4F234602461A49384603F039FA384601F0F8FD484602F093FC8046EC68214602F044FD18B1012072
:4002C00001F066FA07E02146404602F031FD10B1002001F05DFA0022054B1A60FFF772FF304601F097F8024B1B68012BA9D0F5E7A481FF1F09CB3D8D000059400000E03F5D
:400300001F85EB511882FF1FF04F000070B5064614461D46002001F065F8002001F06EF8B0B201F05BFA002001F0A0F8002001F091F82046294602F075FB80B201F006FB8D
:4003400070BD00BF2DE9F04F83B004468B46CDE900230C9E0D9DDDF83CA000226E4B9A625FFA80F9484601F03DF86FEA09085FFA88F8404601F042F81FFA8BF7384601F0B5
:400380002DFA484601F072F8404601F063F8384601F0DCFAD9469CE001F076FA5E4FF86201F02AFB3863FB6A1A1A5C4F002AB8BF52425B49384603F0AFF9384601F06EFD52
:4003C000012C16D1544BD86A1B6BC01A02F08AF8DDE9002302F0ECF880468946584602F081F842464B4601F031FF02F0F3FA814616E0ACB9484B186BDB6AC01A02F072F80B
:40040000DDE9002302F0D4F880468946584602F069F842464B4601F019FF02F0DBFA81461FFA89F001F092FA3C4F4B465A463D49384603F071F9384601F030FD012E1BD1FC
:4004400001F04CF8002844D1BE46374F0FCFCEF80000CEF80410CEF80820CEF80C303868CEF810003B798EF81430704601F016FD0122294B9A622CE0002D11DD264BDB6AF4
:400480009D4205DC012C03D10122234B9A6220E06A4293421DDCE4B901221F4B9A6218E00E9B002B03DD64211846FFF7C3FEBAF1010F0ED101F09AFE58B901F08FFE40B95D
:4004C0004FF4FA7000F0A6FF0120134B986201F05FF9114B9B6A002B3FF45EAF002200230020FFF713FF002001F0D6F9002001F08BFA0A4D0D4C0FCC28606960AA60EB6018
:4005000003CC2861696123782B76284601F0C6FC03B0BDE8F08F00BFA481FF1F1882FF1F005000000C5000002C500000445000002DE9F84381460E4614461D46002001F0B5
:40054000ABF9002001F060FA5FFA89F8404600F049FF6FEA0807FFB2384600F04FFFB6B2304601F03BF9384600F080FF404600F071FF304601F0EAF9B9F1010F16D110E04E
:4005800001F082F91F4B586384420ADC002001F083F9002001F038FA002200230020FFF7B5FE184B5B6BA342EADB19E0B9F1000F11D015E001F068F9124B586384420ADBB0
:4005C000002001F069F9002001F01EFA002200230020FFF79BFE6C420A4B5B6B9C42E9DB0022084B5A63084D084C0FCC28606960AA60EB6023782B74284601F04FFCBDE81B
:40060000F88300BFA481FF1F1882FF1F60500000F0B585B0454D464C0FCC28606960AA60EB6007CC28616961AA61284601F036FC00240394029440F6980301930094002228
:400640003C4B43F2D4010120FFF77CFE642000F0E1FE234640F63C7243F2D4010120FFF767FF642000F0D6FE334BDB69072B10DC0394029440F2A4620192009400222D4BE3
:4006800043F2D4010120FFF75DFE642000F0C2FE12E0072B10DD00230393029340F27262019200930022234B43F2D4010120FFF749FE642000F0AEFE40F68D63002243F26A
:4006C000D4011046FFF734FF642000F0A3FE0026184F01250395002402940194009432463B4643F2D4012046FFF72CFE642000F091FE03940294C8230193009432463B469E
:4007000043F2D4012846FFF71DFE4FF47A7000F081FE204601F03CF8074B1C62204600F079FE022001F07EFC05B0F0BD1882FF1F7450000000805140A481FF1F08B528B90F
:4007400000F0EAFF002000F0F3FF08BD022806D1002000F0E1FF012000F0EAFF08BD142806D1012000F0D8FF002000F0E1FF08BD642805D1012000F0CFFF012000F0D8FF50
:4007800008BD00BF10B50446164902F0E9FF28B900F0DAFF002000F0E3FF10BD1249204602F0DEFF30B9012000F0CEFF012000F0D7FF10BD0D49204602F0D2FF28B900F0A9
:4007C000C3FF012000F0CCFF10BD0949204602F0C7FF28B9012000F0B7FF002000F0C0FF10BD00BFAC500000B0500000B8500000C050000008B5012000F088FF012000F0A1
:4008000009FE002000F082FF08BD00BF38B5012000F0B2FF6420FFF791FF4FF47A7000F0F9FD5948FFF7AEFF142000F0F3FDFFF7E1FF564B5B6A002BFBD000F00FFF024600
:40084000524C6064524D5349284602F065FF284601F024FB002363624F48FFF793FF142000F0D8FDFFF7C6FF484B5B6A002BFBD04FF47A7000F0CEFD00F0F0FE0246434CF3
:40088000A063434D4549284602F046FF284601F005FB002363624248FFF774FF142000F0B9FDFFF7A7FF394B5B6A002BFBD000F0D5FE0246354CE063354D3A49284602F04F
:4008C0002BFF284601F0EAFA002363623648FFF759FF142000F09EFDFFF78CFF2B4B5B6A002BFBD000F0BAFE0246284C2064284D2E49284602F010FF284601F0CFFA0023D8
:400900006362A16BE26B914201DD012300E00223012B0AD11D48006C814206DD01221B4B9A64002000F034FF27E0022B0AD1174B1B6C9A4206DD0222144B9A64012000F02E
:4009400027FF1AE00322114B9A64012000F020FF642000F05FFD002000F01AFF642000F059FD012000F014FF642000F053FD002000F00EFF642000F04DFD002000F0A2FD73
:40098000024B986C38BD00BFC0500000A481FF1F1882FF1FC8500000AC500000D4500000B8500000E0500000B0500000EC50000038B504460D460DE001F066F8012809D1B2
:4009C00001F07CF9601E80B201F06CF9013C0A2000F020FDAC42EFDA38BD00BF38B504460D460DE001F050F8012809D101F066F9601C80B201F056F901340A2000F00AFD65
:400A0000AC42EFDD38BD00BFF0B585B00646424D424C0FCC28606960AA60EB600FCC28616961AA61EB61284601F038FA0020FFF785FE002000F0A0FE012E02D0022E36D0F0
:400A400067E00026364F00240394029441F204030193009432463B4643F2D4012046FFF771FC4FF4FA7000F0D5FC40F29D3140F28930FFF7B3FF4FF4FA7000F0CBFC039409
:400A8000029440F62E130193009432463B4643F2D4010120FFF756FC4FF4FA7000F0BAFC40F2893140F29D30FFF782FF31E040F29D3140F28930FFF791FF4FF4FA7000F0C1
:400AC000A9FC0026164F00240394029441F204050195009432463B4643F2D4012046FFF731FC4FF4FA7000F095FC40F2893140F29D30FFF75DFF642000F08CFC03940294EF
:400B00000195009432463B4643F2D4010120FFF719FC05B0F0BD00BF1882FF1FF8500000008051402DE9704384B0504D504C0FCC28606960AA60EB602068286123792B7526
:400B4000284601F0ABF94B4E0125F564002434657465B465204600F0A1FC4FF00008DFF818910394029440F2A4630193009442464B4643F2D4012846FFF7E4FB642000F089
:400B800049FC23464FF47A6243F2D4012846FFF7CFFC642000F03EFC0394029440F20E630193009442464B4643F2D4012846FFF7C9FB642000F02EFC40F6D863224643F292
:400BC000D4012046FFF7B4FC642000F023FC039502940194009442464B4643F2D4012046FFF7B0FB642000F015FC204600F0D0FD039402940194009542464B4643F2D401DE
:400C00002846FFF79FFB284600F0B6FD6420FFF795FD039402944FF47A730193009442464B4643F2D4012846FFF78CFB00F0EEFC00F05EFDFFF7EAFD322000F0EBFBB36CBD
:400C4000022B02D10220FFF7DFFE012000F03AFC084AD3690133D361012001F0DBFA0A2000F0D8FB04B0BDE8708300BF1882FF1F18510000A481FF1F008051402DE9704325
:400C800084B0354D354C0FCC28606960AA60EB602068286123792B75284601F0FFF8304D01262E650024EC646C65AC654FF00008DFF8B090039402940194009642464B467D
:400CC00043F2D4013046FFF73DFB304600F054FD6420FFF733FD039402944FF47A730193009442464B4643F2D4013046FFF72AFB00F08CFC00F0FCFCFFF788FD322000F08F
:400D000089FBAB6C032B02D13046FFF77DFE012000F0D8FB002000F02FFD0020FFF70EFD01230393002002900190009000220D4B43F2D401FFF706FBC82000F06BFB084A57
:400D4000D3690133D361022001F064FA0A2000F061FB04B0BDE870831882FF1F30510000A481FF1F008051402DE9704384B04E4D4E4C0FCC28606960AA60EB60206828614B
:400D800023792B75284601F089F8494E012575650024F4643465B4654FF00008DFF81491039402944FF416630193009442464B4643F2D4012846FFF7C5FA642000F02AFB9F
:400DC00040F64853224643F2D4012046FFF7B0FB642000F01FFB0394029440F6F7530193009442464B4643F2D4012846FFF7AAFA642000F00FFB23464FF4616243F2D40124
:400E00002846FFF795FB642000F004FB039502940194009442464B4643F2D4012046FFF791FA642000F0F6FA204600F0B1FC039402940194009542464B4643F2D40128469B
:400E4000FFF780FA284600F097FC6420FFF776FC039402944FF47A730193009442464B4643F2D4012846FFF76DFA00F0CFFB00F03FFCFFF7CBFC322000F0CCFAB36C032BBB
:400E800002D10220FFF7C0FD012000F01BFB084AD3690133D361642001F0BCF90A2000F0B9FA04B0BDE870831882FF1F48510000A481FF1F008051402DE9704384B0364D05
:400EC000364C0FCC28606960AA60EB602068286123792B75284600F0E1FF314D0126AE650024EC642C656C654FF00008DFF8B490039402940194009642464B4643F2D401F9
:400F00003046FFF71FFA304600F036FC6420FFF715FC039402944FF47A730193009442464B4643F2D4013046FFF70CFA00F06EFB00F0DEFBFFF76AFC322000F06BFAAB6CB3
:400F4000B34202D13046FFF75FFD012000F0BAFA002000F011FC0020FFF7F0FB01250395002402940194009400220E4B43F2D4012046FFF7E7F90A4AD3692B44D361204603
:400F800001F048F9284601F04DF80A2000F042FA04B0BDE8708300BF1882FF1F60510000A481FF1F0080514008B562B600F05EFC00F014FD00F09EFC00F054FD00F054FF0F
:400FC00000F0C4FE012001F01FF9012001F016F90D4801F047F80D4801F0F2F80C4800F005FF0C4800F09CFA0B4800F091FF0B4800F0B6FF0A4800F0DFFF0A4801F004F8F3
:40100000094800F0CBFEFEE70D02000085000000B1010000550100007D0C0000250B0000B90E0000690D000011060000FEE700BFF0B40022174611E050F82760F3B226F0D6
:40104000FF0608E001EB420511F812406D78A5550132013BDBB2002BF4D10137292FEBD9F0BC7047064B1B78DBB203F00701054A11701B09013213704422034B1A70704768
:40108000CF0100496E5800407658004008B50A46002101F0C8FE08BD38B517222B4B1A8018232B4A137033210232118002321370EF21023211800232137040F2DF1102323E
:4010C0001180023213700222224B1A7008224FF040231A70032103F5007319701E4B1B78DBB21E490B701E4B1A8041F25122023B1A80002419250CE01A4B1B7803F00103F7
:4011000043EA440404F003044FF4F07001F088F8013D0DB1032CEFD115B90320FFF786FF114B4FF480721A8007221A7000220F490A704820023108701A700222033B1A7079
:401140000B4A137843F00F03137038BD80400040824000400043004008010049A146004022420040254200400440004006400040A243004008B501F04BFE08BD38B572B689
:40118000424A137843F00403137000240CE0404D630019194A0011462A44084691882858FFF774FF0134E4B2072CF0D900240BE03748A20011194B0003441A8F596B186B27
:4011C000FFF7D8FF0134E4B2022CF1D931494FF09040FFF72DFF304A304B1A60304A03F5B0631A602F4A03F5D0631A6002F1804203F500731A602C4A137843F002031370D2
:401200001032137843F002031370284C237843F040032370A2F58632513A137843F010031370082222492348FFF7A4FF0A2222492248FFF79FFF0A2221492248FFF79AFF23
:40124000082221492148FFF795FF0A2220492148FFF790FF082220492048FFF78BFF204A137843F0080313701E4D61232B70FFF713FF81232B7001221B4B1A70FFF7F2FE69
:401280000E2221461948FFF775FF38BDE846004078510000A800004804040084D8000140C4C400C40404048403500140A04300405C1100480251004064110048C051004022
:4012C00070110048F05100407C1100481251004084110048205100409011004832510040224300400048004004000840B043004008B501F061FD03680C2B00D1FEE7FEE7FD
:4013000008B5094B1A681044084BC31AB3F5007F02DC054B186005E001F04EFD0C2303604FF0FF32104608BDD480FF1F3082FF1F08B5104E104D16E029686B68AC68002241
:4013400004E051F8040B43F8040B0432A242F8D1E868002203E0002143F8041B04328242F9D11035013E002EE6D101F02BFDFFF71BFEFEE7010000005053000008B5104A3F
:40138000104B1A60104A136843F40073136000230AE0032B03D80D4A52F8231000E00C490C4A42F8231001332F2BF2D90A4B1A780A4B1A70074A0A4B1A60FFF7DFFE08BDAD
:4013C0000004FA050CED00E014ED00E000000000F11200000080FF1FBC760040C080FF1F08ED00E0044A137803F0DF03400100F0200018431070704710510040044A1378DF
:4014000003F0EF03000100F010001843107070471051004010B5044605E0084B186800F0FFFEA4F50044B4F5004FF6D8034B586800FB04F000F0F4FE10BD00BFD880FF1F5B
:4014400008B5034B1B7A00FB03F000F0E9FE08BDD880FF1F044A137803F0FD03400000F0020018431070704700510040044A137803F0DF03400100F020001843107070471A
:4014800000510040044A137803F0F703C00000F0080018431070704720510040044A137803F0FB03800000F0040018431070704720510040024B1878C0F38000704700BFD3
:4014C00021510040044A137803F0FE0300F0010018431070704700BF20510040024B187800F00100704700BF21510040014B1B681864704708ED00E04001C0B2014B187026
:40150000704700BF00E400E00122014B1A60704700E100E00122014B1A60704780E100E010B50446FFF7F6FF2046FFF7DFFF0220FFF7E2FFFFF7E8FF10BD00BF024A1378C2
:4015400043F080031370704777640040014B1880704700BF086A0040014B1880704700BF886A0040014B1880704700BF486A0040014B1870704700BF86640040014B18782C
:40158000704700BF66640040014B188880B27047A86A004008B501E0FFF7F6FFFFF7EEFF10F0100FF8D108BD08B5164A137803F0C00343F00903137002F21D12137843F06A
:4015C000010313700132137843F0010313704CF24F30FFF7BBFF4CF24F30FFF7BDFF46F2A810FFF7BFFF0120FFF7C2FF00F020FE054A137843F01003137000F01DFEFFF7E2
:40160000C9FF08BD776400409664004008B5054B1B7823B9FFF7C8FF0122024B1A70FFF78DFF08BD0482FF1F024A137843F080031370704776640040014B1870704700BF7F
:4016400086650040014B1878704700BF66650040014B1880704700BF0C6A0040014B188880B270478C6A0040014B1880704700BF4C6A0040014B1880704700BF6C6A004007
:4016800008B501E0FFF7EAFFFFF7DCFF10F0400FF8D108BD08B5144A137803F0F80343F001031370137803F0FC0343F008031370FFF7E6FF4FF6FE70FFF7D6FF0020FFF704
:4016C000C7FF0020FFF7B8FFFFF7BCFFC820FFF7D1FF00F0ADFD054A137843F01003137000F0AAFD08BD00BF766400409665004008B5054B1B7823B9FFF7CCFF0122024B9E
:401700001A70FFF791FF08BD0582FF1F014B1870704700BF76650040044A137803F0EF03000100F0100018431070704700510040044A137803F0F703C00000F0080018430F
:401740001070704700510040044A137803F0FB03800000F0040018431070704700510040044A137803F0FB03800000F0040018431070704730510040044A137803F0FE03E2
:4017800000F0010018431070704700BF00510040044A137803F0FD03400000F0020018431070704720510040084A137843F0010313701032137843F00103137002F64D3280
:4017C000137843F001031370704700BFA3430040014B1880704700BF044F0040014B1880704700BF064F0040014B1870704700BF034F004008B51A4A137843F002031370E9
:401800000232137803F08F0343F010031370154B1A7802F0CF021A701A7842F030021A701A7802F0F0021A701A7842F00F021A7046F2A710FFF7CCFF43F2D400FFF7CEFF01
:401840000020FFF7D1FF084A137843F00103137002F65E32137843F00103137008BD00BF004F00400B4F0040A343004008B5054B1B7823B9FFF7BEFF0122024B1A70FFF72C
:4018800093FF08BD0682FF1F08B500F01DF9A0F5004000B208BD00BF08B5002803DB80B280F4004002E0A0F5004080B200F006F908BD00BF024B187800F00F00704700BF06
:4018C00067650040014B1870704700BF8765004008B50F20FFF7F6FFFFF7ECFF00F0A8FC034A137843F01003137000F0A5FC08BD9765004008B500F039F94FF4004000F095
:40190000DDF8044B1B7813B90122024B1A70FFF7DFFF08BD0782FF1F084A137843F0020313701032137843F00203137002F65932137843F001031370704700BFA343004066
:40194000014B1880704700BF104F0040014B1880704700BF124F0040014B1870704700BF0F4F004008B51A4A137843F0020313700232137803F08F0343F010031370154BB7
:401980001A7802F0CF021A701A7842F030021A701A7802F0F0021A701A7842F00F021A7046F2A710FFF7CCFF43F2D400FFF7CEFF0020FFF7D1FF084A137843F0020313706F
:4019C00002F66A32137843F00103137008BD00BF0C4F0040174F0040A343004008B5054B1B7823B9FFF7BEFF0122024B1A70FFF793FF08BD0882FF1F08B500F0DFF8A0F5EC
:401A0000004000B208BD00BF08B5002803DB80B280F4004002E0A0F5004080B200F0C8F808BD00BF024B187800F00F00704700BF65640040014B1870704700BF856400409C
:401A400008B50F20FFF7F6FFFFF7ECFF00F0F0FB034A137843F01003137000F0EDFB08BD9564004008B500F0FBF84FF4004000F09FF8044B1B7813B90122024B1A70FFF714
:401A8000DFFF08BD0982FF1F014B1878704700BF67640040024A137843F08003137070477B640040014B1870704700BF8F640040014B1878704700BF6F640040014B1880D1
:401AC000704700BF1C680040024B1B78024B188880B270470E6400409C680040014B188880B270479C680040014B1880704700BF5C680040014B1880704700BF7C6800400B
:401B000008B501E0FFF7EAFFFFF7D2FF10F0400FF8D108BD08B5134B1A7802F0F8021A701A7802F0FC021A70FFF7EAFF4FF40040FFF7DAFF4FF40040FFF7C0FF0020FFF7D6
:401B4000B1FFFFF7B5FF4FF40040FFF7D3FF00F06FFB054A137843F01003137000F06CFB08BD00BF7B6400409F64004008B5054B1B7823B9FFF7CEFF0122024B1A70FFF757
:401B800089FF08BD0A82FF1F024A137843F080031370704775640040014B1870704700BF81640040014B1878704700BF61640040014B1880704700BF04680040024B1B78A2
:401BC000024B188880B270470264004084680040014B188880B2704784680040014B1880704700BF44680040014B1880704700BF6468004008B501E0FFF7EAFFFFF7D2FF4C
:401C000010F0400FF8D108BD08B5134B1A7802F0F8021A701A7802F0FC021A70FFF7EAFF4FF40040FFF7DAFF4FF40040FFF7C0FF0020FFF7B1FFFFF7B5FF4FF40040FFF746
:401C4000D3FF00F0F5FA054A137843F01003137000F0F2FA08BD00BF756400409164004008B5054B1B7823B9FFF7CEFF0122024B1A70FFF789FF08BD0B82FF1F024A137864
:401C800043F080031370704774650040014B1880704700BF146A0040014B1880704700BF946A0040014B1880704700BF546A0040014B1870704700BF84650040014B1878C4
:401CC000704700BF64650040014B188880B27047B46A004008B501E0FFF7F6FFFFF7EEFF10F0100FF8D108BD08B5164A137803F0C00343F00C0313702632137843F00103DC
:401D000013700132137843F00103137040F2E730FFF7BCFF40F2E730FFF7BEFF40F28930FFF7C0FF0420FFF7C3FF00F081FA064A137843F01003137000F07EFAFFF7CAFF00
:401D400008BD00BF746500409465004008B5054B1B7823B9FFF7C8FF0122024B1A70FFF78DFF08BD0C82FF1F014B1B689864704708ED00E04001C0B2014B1870704700BF13
:401D800002E400E00422014B1A60704700E100E00422014B1A60704780E100E010B50446FFF7F6FF2046FFF7DFFF0420FFF7E2FFFFF7E8FF10BD00BF014B1B68D8647047BB
:401DC00008ED00E04001C0B2014B1870704700BF03E400E00822014B1A60704700E100E00822014B1A60704780E100E010B50446FFF7F6FF2046FFF7DFFF0120FFF7E2FFCE
:401E0000FFF7E8FF10BD00BF7222084B1A702022033B1A700622A3F261131A70472210331A70002249331A70704700BF8B65004010B500F0FDF904460A4A137843F02003D5
:401E40001370033A137843F010031370A2F58472137843F01003137000F032F8204600F0EBF910BD9B65004008B5054B1B7823B9FFF7CAFF0122024B1A70FFF7D9FF08BD44
:401E80000D82FF1F034B1B7813F0040FFAD1024B18707047606400404064004038B5074B1B782BB938BDFFF7EDFF0134A4B201E005460024285D0028F5D138BD0D82FF1FC2
:401EC000054A137843F0020313701032137843F002031370704700BFA2430040014B1B68D865704708ED00E04001C0B2014B1870704700BF07E400E08022014B1A607047AB
:401F000000E100E08022014B1A60704780E100E010B50446FFF7F6FF2046FFF7DFFF0720FFF7E2FFFFF7E8FF10BD00BF014B1B685865704708ED00E04001C0B2014B187046
:401F4000704700BF05E400E02022014B1A60704700E100E02022014B1A60704780E100E010B50446FFF7F6FF2046FFF7DFFF0720FFF7E2FFFFF7E8FF10BD00BF014B1B6838
:401F80001866704708ED00E04001C0B2014B1870704700BF08E400E04FF48072014B1A60704700BF00E100E04FF48072014B1A60704700BF80E100E010B50446FFF7F4FF72
:401FC0002046FFF7DBFF0720FFF7DEFFFFF7E4FF10BD00BF014B1B689865704708ED00E04001C0B2014B1870704700BF06E400E04022014B1A60704700E100E04022014BDF
:402000001A60704780E100E010B50446FFF7F6FF2046FFF7DFFF0720FFF7E2FFFFF7E8FF10BD00BF014B1870704700BF78650040014B1B681865704708ED00E04001C0B2A1
:40204000014B1870704700BF04E400E01022014B1A60704700E100E01022014B1A60704780E100E010B50446FFF7F6FF2046FFF7DFFF0120FFF7E2FFFFF7E8FF10BD00BF59
:40208000014B1878704700BF69640040024A137843F08003137070477E640040014B1870704700BF8D640040014B1878704700BF6D640040014B1880704700BF58680040A0
:4020C000014B188880B2704798680040014B1880704700BF18680040024B1B78024B188880B270470C6400409868004000F00300044B1A7802F0FC021A701A781043187050
:40210000704700BF7E64004008B501E0FFF7D8FFFFF7CAFF10F0080FF8D108BD08B54FF6FF70FFF7C7FF4FF6FF70FFF7CFFF00F07FF8084A137843F01003137000F07CF822
:402140000020FFF7D3FFFFF7DFFF0220FFF7A6FF08BD00BF9D64004008B5054B1B7823B9FFF7DCFF0122024B1A70FFF78FFF08BD0F82FF1F044A137803F0DF03400100F003
:40218000200018431070704720510040014B1B685864704708ED00E04001C0B2014B1870704700BF01E400E00222014B1A60704700E100E00222014B1A60704780E100E09F
:4021C00010B50446FFF7F6FF2046FFF7DFFF0020FFF7E2FFFFF7E8FF10BD00BF024B1878C0F34000704700BFF1510040024B187800F00100704700BFF1510040014B1870E9
:40220000704700BF7D640040014B1870704700BF7C640040014B1870704700BF796500400230800803D000BF01380046FCD17047EFF3108072B6704780F31088704700BF14
:4022400081F0004102E000BF83F0004330B54FEA41044FEA430594EA050F08BF90EA020F1FBF54EA000C55EA020C7FEA645C7FEA655C00F0E2804FEA5454D4EB5555B8BFB2
:402280006D420CDD2C4480EA020281EA030382EA000083EA010180EA020281EA0303362D88BF30BD11F0004F4FEA01314FF4801C4CEA113102D0404261EB410113F0004FA0
:4022C0004FEA03334CEA133302D0524263EB430394EA050F00F0A780A4F10104D5F1200E0DDB02FA0EFC22FA05F2801841F1000103FA0EF2801843FA05F359410EE0A5F10E
:4023000020050EF1200E012A03FA0EFC28BF4CF0020C43FA05F3C01851EBE37101F0004507D54FF0000EDCF1000C7EEB00006EEB0101B1F5801F1BD3B1F5001F0CD3490827
:402340005FEA30004FEA3C0C04F101044FEA445212F5800F80F09A80BCF1004F08BF5FEA500C50F1000041EB045141EA050130BD5FEA4C0C404141EB010111F4801FA4F1A9
:402380000104E9D191F0000F04BF01460020B1FA81F308BF2033A3F10B03B3F120020CDA0C3208DD02F1140CC2F10C0201FA0CF021FA02F10CE002F11402D8BFC2F1200CB6
:4023C00001FA02F120FA0CFCDCBF41EA0C019040E41AA2BF01EB0451294330BD6FEA04041F3C1CDA0C340EDC04F11404C4F1200220FA04F001FA02F340EA030021FA04F334
:4024000045EA030130BDC4F10C04C4F1200220FA02F001FA04F340EA0300294630BD21FA04F0294630BD94F0000F83F4801306BF81F480110134013D4EE77FEA645C18BFDE
:402440007FEA655C29D094EA050F08BF90EA020F05D054EA000C04BF1946104630BD91EA030F1EBF0021002030BD5FEA545C05D14000494128BF41F0004130BD14F58004CD
:402480003CBF01F5801130BD01F0004545F0FE4141F470014FF0000030BD7FEA645C1ABF194610467FEA655C1CBF0B46024650EA013406BF52EA033591EA030F41F4002151
:4024C00030BD00BF90F0000F04BF0021704730B54FF4806404F132044FF000054FF0000150E700BF90F0000F04BF0021704730B54FF4806404F1320410F0004548BF404226
:402500004FF000013EE700BF42004FEAE2014FEA31014FEA02701FBF12F07F4393F07F4F81F06051704792F0000F14BF93F07F4F704730B54FF4607401F0004521F0004147
:4025400020E700BF50EA010208BF704730B54FF000050AE050EA010208BF704730B511F0004502D5404261EB41014FF4806404F132045FEA915C3FF4DCAE4FF003025FEA28
:40258000DC0C18BF03325FEADC0C18BF033202EBDC02C2F1200300FA03FC20FA02F001FA03FE40EA0E0021FA02F11444C1E600BF70B54FF0FF0C4CF4E06C1CEA11541DBF02
:4025C0001CEA135594EA0C0F95EA0C0F00F0DEF82C4481EA030621EA4C5123EA4C5350EA013518BF52EA033541F4801143F4801338D0A0FB02CE4FF00005E1FB02E506F081
:402600000042E0FB03E54FF00006E1FB03569CF0000F18BF4EF0010EA4F1FF04B6F5007F64F5407404D25FEA4E0E6D4146EB060642EAC62141EA55514FEAC52040EA5E504D
:402640004FEACE2EB4F1FD0C88BFBCF5E06F1ED8BEF1004F08BF5FEA500E50F1000041EB045170BD06F0004646EA010140EA020081EA0301B4EB5C04C2BFD4EB0C0541EA5B
:40268000045170BD41F480114FF0000E013C00F3AB8014F1360FDEBF002001F0004170BDC4F10004203C35DA0C341BDC04F11404C4F1200500FA05F320FA04F001FA05F290
:4026C00040EA020001F0004221F0004110EBD37021FA04F642EB06015EEA430E08BF20EAD37070BDC4F10C04C4F1200500FA04F320FA05F001FA04F240EA020001F00041DA
:4027000010EBD37041F100015EEA430E08BF20EAD37070BDC4F1200500FA05F24EEA020E20FA04F301FA05F243EA020321FA04F001F0004121FA04F220EA020000EBD3707A
:402740005EEA430E08BF20EAD37070BD94F0000F0FD101F00046400041EB010111F4801F08BF013CF7D041EA060195F0000F18BF704703F00046520043EB030313F4801F3F
:4027800008BF013DF7D043EA0603704794EA0C0F0CEA135518BF95EA0C0F0CD050EA410618BF52EA4306D1D181EA030101F000414FF0000070BD50EA410606BF1046194695
:4027C00052EA430619D094EA0C0F02D150EA013613D195EA0C0F05D152EA03361CBF104619460AD181EA030101F0004141F0FE4141F470014FF0000070BD41F0FE4141F492
:40280000780170BD70B54FF0FF0C4CF4E06C1CEA11541DBF1CEA135594EA0C0F95EA0C0F00F0A7F8A4EB050481EA030E52EA03354FEA013100F088804FEA03334FF0805512
:4028400045EA131343EA12634FEA022245EA111545EA10654FEA00260EF000419D4208BF964244F1FD0404F5407402D25B084FEA3202B61A65EB03055B084FEA32024FF42D
:4028800080104FF4002CB6EB020E75EB030E22BFB61A754640EA0C005B084FEA3202B6EB020E75EB030E22BFB61A754640EA5C005B084FEA3202B6EB020E75EB030E22BF9E
:4028C000B61A754640EA9C005B084FEA3202B6EB020E75EB030E22BFB61A754640EADC0055EA060E18D04FEA051545EA16754FEA06164FEAC30343EA52734FEAC2025FEA4F
:402900001C1CC0D111F4801F0BD141EA00014FF000004FF0004CB6E711F4801F04BF01430020B4F1FD0C88BFBCF5E06F3FF6AFAEB5EB030C04BFB6EB020C5FEA500C50F162
:40294000000041EB045170BD0EF0004E4EEA113114EB5C04C2BFD4EB0C0541EA045170BD41F480114FF0000E013C90E645EA060E8DE60CEA135594EA0C0F08BF95EA0C0FB2
:402980003FF43BAF94EA0C0F0AD150EA01347FF434AF95EA0C0F7FF425AF104619462CE795EA0C0F06D152EA03353FF4FDAE1046194622E750EA410618BF52EA43067FF447
:4029C000C5AE50EA41047FF40DAF52EA43057FF4EBAE12E74FEA410212F5001215D211D56FF47873B3EB625212D94FEAC12343F0004343EA505311F0004F23FA02F018BFA7
:402A0000404270474FF00000704750EA013005D111F0004008BF6FF0004070474FF00000704700BF4A0011D212F5001211D20DD56FF47873B3EB62520ED44FEAC12343F036
:402A4000004343EA505323FA02F070474FF00000704750EA013002D14FF0FF3070474FF00000704780F0004002E000BF81F0004142001FBF5FEA410392EA030F7FEA226CF9
:402A80007FEA236C6AD04FEA1262D2EB1363C1BFD218414048404140B8BF5B42192B88BF704710F0004F40F4000020F07F4018BF404211F0004F41F4000121F07F4118BFE1
:402AC000494292EA030F3FD0A2F1010241FA03FC10EB0C00C3F1200301FA03F100F0004302D5494260EB4000B0F5000F13D3B0F1807F06D340084FEA310102F10102FE2A0D
:402B000051D2B1F1004F40EBC25008BF20F0010040EA03007047490040EB000010F4000FA2F10102EDD1B0FA80FCACF1080CB2EB0C0200FA0CF0AABF00EBC25052421843E0
:402B4000BCBFD0401843704792F0000F81F4000106BF80F400000132013BB5E74FEA41037FEA226C18BF7FEA236C21D092EA030F04D092F0000F08BF0846704790EA010FF0
:402B80001CBF0020704712F07F4F04D1400028BF40F00040704712F100723CBF00F50000704700F0004343F0FE4040F4000070477FEA226216BF08467FEA2363014642023B
:402BC00006BF5FEA412390EA010F40F4800070474FF0000304E000BF10F0004348BF40425FEA000C08BF704743F0964301464FF000001CE050EA010208BF70474FF000035F
:402C00000AE000BF50EA010208BF704711F0004302D5404261EB41015FEA010C02BF84460146002043F0B64308BFA3F18053A3F50003BCFA8CF2083AA3EBC25310DB01FAC9
:402C400002FC634400FA02FCC2F12002BCF1004F20FA02F243EB020008BF20F00100704702F1200201FA02FCC2F1200250EA4C0021FA02F243EB020008BF20EADC7070479D
:402C80004FF0FF3C06E000BF4FF0010C02E000BF4FF0010C4DF804CD4FEA40024FEA41037FEA226C18BF7FEA236C11D001B052EA530C18BF90EA010F58BFB2EB030088BF5C
:402CC000C81738BF6FEAE17018BF40F0010070477FEA226C02D15FEA402C05D17FEA236CE4D15FEA412CE1D05DF8040B704700BF844608466146FFE70FB5FFF7C9FF002803
:402D000048BF10F1000F0FBD4DF808EDFFF7F4FF0CBF012000205DF808FB00BF4DF808EDFFF7EAFF34BF012000205DF808FB00BF4DF808EDFFF7E0FF94BF012000205DF80E
:402D400008FB00BF4DF808EDFFF7D2FF94BF012000205DF808FB00BF4DF808EDFFF7C8FF34BF012000205DF808FB00BF4FEA4002B2F1FE4F0FD34FF09E03B3EB12620DD97E
:402D80004FEA002343F0004310F0004F23FA02F018BF404270474FF00000704712F1610F01D1420205D110F0004008BF6FF0004070474FF000007047014B1868704700BFE9
:402DC0004881FF1F0E4B70B51E460E4C0025E41AA410A54204D056F8253098470135F8E702F0A4FA084B094C1E46E41AA4100025A54204D056F8253098470135F8E770BD95
:402E00003853000038530000385300004053000010B5431E0A44914204D011F8014B03F8014FF8E710BD03460244934202D003F8011BFAE770472DE9F04788B0149F002BAF
:402E40001E461299B8BF03F1004327F02007B6BF1E4600232D23462F1446109DDDF84CA00B7003D0452F03D1013501E0032300E0022307AA049206AA03928DE82804224661
:402E8000334600F00DFD472F804602D1119BDB0728D5462F08EB050911D198F80030302B0AD1002200232046314602F03BF818B9C5F10105CAF80050DAF8003099440022D0
:402EC00000232046314602F02DF808B9302202E0CDF81C9006E0079B994503D9591C07911A70F8E74046079B159AC8EB0303136008B0BDE8F087034673B50029B8BF49422A
:402F000003F8022BB4BF2D222B22092942701ADD0DF1070216460A2591FBF5F405FB1411092C01F1300102F8011D2146F4DC3031541E02F8011CB4421A460AD214F8012B58
:402F400003F8012BF7E71A463024214402F8024B5970101A02B070BD2DE9F04F91B00C46DDF8688016461F46054601F031FA03681846099300F0FEFB00230E93D8F800303B
:402F80000A90073323F0070303F1080294F81890D4F800B0C8F80020D3E90023C4E91223D4F84CA0D4F848802AF000430B934FF0FF32A74B40460B9901F0E6FFA0B94FF090
:402FC000FF32A34B40460B9901F0C0FF60B9002200234046514601F0AFFF10B12D2384F843309C4B9C4A0AE0424653464046514601F0CAFF002800F09281984B984AB9F175
:40300000470F8CBF90469846032323612BF0040323604FF0000A3DE0B9F1670F00F08A81B9F1470F00F0868123600193636800210DF13302059002920093424653460691CA
:40304000CDF81090CDF80CE02846FFF7F4FE09F0DF03472B804600F08481B9F1650F0D9900F28D8101394A4604F150000D91FFF742FF0E9A82468318012A236100F37C818A
:403080002268D10700F178819DF8333013B12D2384F84330009733460FAA2146284600F09FF9013002D14FF0FF3096E123685A0501D4236965E0B9F1650F40F2D580D4E9C8
:4030C00012010022002301F02DFF78B30123654A31462846B8470130E5D00E9B0D9A9A420BDB2368D80708D423689B0740F111814FF0000804F1190906E10A9B099A314647
:403100002846B8470130CED04FF0000804F11A090E9B013B9845E7DA01234A4631462846B8470130BFD008F10108F1E70D9B002B29DC01234B4A31462846B8470130B2D017
:403140000D9B23B90E9B13B92368D907CCD50A9B099A31462846B8470130A4D04FF0000904F11A0A0D9B5B42994509DA0123524631462846B847013095D009F10109F1E700
:403180000E9B4246A7E00E9AA36D9A42A8BF1A46002A914606DC4FF0000A29EAE97904F11A0B11E01346314642462846B8470130F1D178E701235A4631462846B847013060
:4031C0003FF471AF0AF1010AA36DC9EB03029245F0DB08EB03090D9A0E9B9A420FDB2368DA070CD40E9B0D9A9844C9EB08089B1A9845A8BF9846B8F1000F08DC0FE00A9BB3
:40320000099A31462846B8470130EBD14BE743464A4631462846B84701303FF444AF4FF0000928EAE87804F11A0A09E00123524631462846B84701303FF435AF09F10109EC
:403240000D9A0E9B9B1AC8EB03039945EEDB4BE7FFFFEF7FC8510000CC510000D0510000D4510000D85100000E9A012A01DCDB0738D50123424631462846B84701303FF413
:4032800012AF0A9B099A31462846B84701303FF40AAFD4E912010022002301F043FE20B14FF0000804F11A090EE00E9B08F10102013B19E001234A4631462846B8470130FC
:4032C0003FF4F1AE08F101080E9B013B9845F1DB534604F1500231462846B84701307FF403AFE0E64246012331462846B8470130EED1D8E601234A4631462846B847013085
:403300003FF4D1AE08F10108E3680F9A9B1A9845F0DBE0680F9B9842B8BF18465DE062680EA8531C0DF1340E4BF480637FF474AE062201E012B90122626075E600210691F8
:403340000DF133018DE80C00236005904246CDF81090CDF80CE0029153462846FFF76BFD80460D9BD81C02DB626893421DDDA9F102095FFA89F970E60133236184E6B9F172
:40338000660F14D10029636807DD216113B92268D2071DD501330B4419E013B92268D00701D5023313E0012311E04FF067090D9B0E9A934205DB22682361D10708D50133D1
:4033C00005E0002BD4BFC3F102030123134423610D9B4FF0000AA36556E611B0BDE8F08F2DE9F04791461F460A698B6806469342B8BF1346C9F8003091F843200C46DDF874
:40340000208012B10133C9F800302368990642BFD9F800300233C9F80030256815F0060510D104F1190A07E00123524639463046C04701301AD00135E368D9F800209B1A3B
:403440009D42F1DB94F843302268003318BF012392060FD5E118302081F843005A1C94F845102244023382F8431003E04FF0FF30BDE8F08704F1430239463046C0470130D6
:40348000F4D02268D9F80050E36802F00602042A08BF5D1B2269A3680CBF25EAE57500259342C4BF9B1AED184FF000091A344D4509D00123224639463046C0470130D5D08B
:4034C00009F10109F3E70020BDE8F0872DE9F04317460A7E85B06E2A984606460C460C9B01F1430E00F0AE8011D8632A22D009D8002A00F0BB80582A40F0CA8081F84520BB
:40350000834955E0642A1ED0692A1CD0C0E0732A00F0B08009D86F2A2ED0702A40F0B8800A6842F020020A603EE0752A24D0782A3AD0ADE01A6801F14205111D19601368C1
:4035400084F84230A8E021681A6811F0800F02D0111D196008E011F0400F02F10401196002D0B2F9003000E01368002B3CDA2D225B4284F8432037E021681A6811F0800F52
:4035800002D0111D196007E011F0400F02F10401196001D0138800E01368227E5C496F2A14BF0A2208221BE078225A4984F845202268186812F0800F00F104051D6003D11D
:4035C000550601D5038800E00368D00744BF42F0200222601BB9226822F0200222601022002084F8430001E049490A226568002DA56008DB206820F0040020602BB9002D41
:403600007DD175460CE0002B79D07546B3FBF2F002FB1033CB5C05F8013D03460028F5D1082A0BD12368DA0708D5236962689A42DEBF302305F8013C05F1FF35C5EB0E035F
:4036400023612EE008681A6810F0800F496903D0101D1860136808E010F0400F02F104001860136801D0198000E0196000232361754616E01A68111D1960156800216268C5
:40368000284600F0B1FE08B1401B6060636804E004F1420584F8422001232361002384F84330CDF800803B4603AA21463046FFF797FE013002D14FF0FF3026E023692A4657
:4036C00039463046C0470130F5D023689B0710D5002504F1190907E001234A4639463046C0470130E7D00135E368039A9B1A9D42F2DBE068039B9842B8BF184605E00B788F
:4037000004F1420584F842308AE705B0BDE8F083DA510000EB5100000EB400B54FF402719CB0ADF814106FF00041049107914FF6FF711DAB02900690084853F8042BADF897
:403740001610006802A9019301F044FA029B00221A701CB05DF804EB03B070474881FF1F10F8012B11F8013B012A28BF9A42F7D0D01A7047034613F8012B002AFBD1181A2C
:40378000013870472DE9F74F03690C6980469C427FDC013C01F114074FEA840E00F1140606EB0E0357F82450019356F824300135B3FBF5F507EB0E09C5B34FF0000A3846AC
:4037C000B446D34650F8043B9AB205FB02A21B0C4FEA124A05FB03A392B2C2EB0B0BBCF800204FEA134A5A441FFA83FBDCF800308145CBEB134303EB224392B242EA034259
:403800004FEA234B4CF8042BDCD256F80E306BB9019B043B9E421A4602D3C8F8104005E01268043B002AF8D1013CF3E7404600F0F6FF00282BDB304601354FF0000E57F887
:40384000042B036891B2C1EB0E0E120C99B27144C2EB134303EB214389B24FEA234EB94541EA034340F8043BE9D256F8242006EB840362B9043B9E421A4602D3C8F8104021
:4038800005E01268043B002AF8D1013CF3E7284600E0002003B0BDE8F08F0000000000002DE9F04F456A95B08246219CCDE9022345B9102000F090FDCAF824004560856057
:4038C0000560C560DAF82430196859B15A68012393404A608B60504600F0C9FDDAF8243000221A60039BA04A002BBDBF01232360039B0023BCBF23F000430393DDF80C80D2
:40390000A8BF236028F000431B0D1B0593421DD142F20F73209A1360029B43B9934A944BC8F31300002814BF1846104600E09048229B002B00F04685C37813B100F108032C
:4039400000E0C31C229A136000F03CBDDDE90245002200232046294601F0E4FA074658B1209A01231360229B002B00F01E8581481860013800F026BD12AB019313AB009369
:4039800022462B46504600F0C5FFC8F30A56049056B1C5F3130343F07F51204641F44011A6F2FF3611971DE0139B129E1E4406F23243202B0ADD029A06F21240C3F14003C3
:4039C00022FA00F008FA03F3184304E0C3F12000029B03FA00F0FEF775FD0123A1F1F871013E11930022644BFEF72EFC58A3D3E90023FEF7DDFD58A3D3E90023FEF726FC33
:403A0000044630460D46FEF76DFD55A3D3E90023FEF7CEFD02460B4620462946FEF716FC04460D46FEF7D6FF0022834600232046294601F081FA58B15846FEF753FD02461E
:403A40000B462046294601F06DFA08B90BF1FF3BBBF1160F0DD8DDE90223484901EBCB01D1E9000101F086FA30B10BF1FF3B002300E00123109300E01090129B9E1B731E63
:403A8000079343BFC3F10008002307934FF00008BBF1000F06DB079BCDF82CB05B440793002705E00023CBEB0808CBF100070B931E9B092B28D8052BC4BF043B1E931E9BF3
:403AC000C8BF0025A3F10203D8BF0125032B20D8DFE803F0060E0204012302E0012308E000230A931F9B002B1DDD9946059321E000230A931F9B0BEB030909F10103012BFB
:403B00000593B8BF012315E0012500231E930A9501E001230A934FF0FF390022CDF8149012231F9206E04FF001094B46CDF81490CDF87C90DAF8244000226260042101F10F
:403B400014029A421CD86268490001326260F6E761436F63A787D23FB3C8608B288AC63FFB799F501344D33F0000F07FFC51000005520000D95100000000F83F18520000FE
:403B80006168504600F03EFCDAF8243020601B680693059B0E2B00F25B81002D00F05881DDE90234BBF1000FCDE90E3430DD9F4A0BF00F034FEA2B1502EBC303E80618CB6E
:403BC000CDE908340CD5DDE90E01994B05F00F05D3E90823FEF716FE0324CDE9020100E00224934E6DB1E90708D5DDE90801D6E90023FEF7DDFCCDE9080101346D10083660
:403C0000F0E7DDE90823DDE90201FEF7FBFD20E0CBF1000505B3DDE90E01844B05F00F0203EBC203D3E90023FEF7C2FCCDE902017F4E2D110023022455B1EA0705D5D6E901
:403C40000023FEF7B5FC013401236D100836F3E71BB1CDE9020100E00224109BE3B1DDE902560022734B2846314601F065F998B1059B8BB1B9F1000F40F3E6800BF1FF33EC
:403C80000893314600226C4B2846FEF791FC0134CDE902014E4602E0059ECDF820B02046FEF720FCDDE90223FEF782FC634B0022FEF7CCFAA1F1507304460C931D46D6B9FD
:403CC000DDE9020100225E4BFEF7BEFA22460C9BCDE9020101F04EF9002840F03F820C99224601F10043DDE9020101F025F9002840F02B82A8E00A9A4C4B711E002A49D0B6
:403D000003EBC103D3E9002300204E49FEF77AFD22462B46FEF798FACDE90C01069CDDE90201FEF757FE0546FEF7DCFB02460B46DDE90201FEF788FADDE90C23303504F8B1
:403D4000015BCDE9020101F0F7F8002840F01D83DDE9022300203749FEF776FADDE90C2301F0EAF8002840F0D180069BE31AB3426ADADDE90C0100222F4BFEF719FC002283
:403D8000CDE90C01DDE902012B4BFEF711FCCDE90201C4E703EBC1012246D1E900012B46FEF706FC069BCDE90C011D469C19DDE90201FEF70FFE0646FEF794FB02460B46B0
:403DC000DDE90201FEF740FA303605F8016BAC42CDE902014FF0000222D11A4BDDE90C01FEF734FA02460B46DDE9020101F0C2F8002840F08B80DDE90C2300201149FEF7F2
:403E000023FA02460B46DDE9020101F095F8D8B114F8013C621E302B40F0B7821446F7E7054BFEF7C5FBCDE90201C0E718520000F05200000000F03F0000244000001C4037
:403E4000000014400000E03FDDE90E34CDE90234139B002B7CDBBBF10E0F79DCAB4B03EBCB03D3E900671F9B002B14DA059B002B11DC40F06C810022A54B30463946FEF714
:403E800097FBDDE9022301F06BF8059D2E46002840F05F8165E1069CDDE9028932463B4640464946FEF7AEFCFEF794FD0546FEF719FB32463B46FEF77BFB0B460246494697
:403EC0004046FEF7C1F905F1300E069B04F801EBC3EB040E059B73452DD102460B46FEF7B5F98046894602460B463046394601F023F878B942464B463046394601F012F815
:403F0000002800F04482EB0704D440E2DDF820B000E01C4614F8012C631E392A07D1069A9A42F6D1069930220BF1010B0A701A7801321A702BE20022764BFEF739FB00229B
:403F400000238046894600F0EDFF0028A6D01EE20A9A002A2BD01E9A012A0ADC119A12B103F2334302E0129BC3F136033D46444613E0059B5D1EAF42BFBF0B9BEA1B9B1840
:403F80000B93059BB6BF2F467D1B0025002BA7BF4446059BC3EB08040023079A01211A4450469844079200F001FB064602E03D4644460A9E5CB1079B002B08DDA342A8BF7E
:403FC0002346079AC3EB0808E41AD31A0793002F1DDD0A9BABB18DB131462A46504600F07FFB049A01460646504600F0E8FA04990890504600F03BFA089B04937A1B06D0F7
:4040000000E03A460499504600F06AFB04900121504600F0CBFA0B9B05465BB31A460146504600F05DFB1E9B0546012B18DC029B83B9039BC3F3130373B9039B23F0004788
:404040003F0D3F054FB1079B08F1010801330793012702E0002700E0029F0B9B73B100E000272B6905EB8303186900F052FAC0F1200004E01E9B012BD9DD0B9F0120079B37
:40408000184410F01F0008D0C0F12003042B02DDC0F11C0002E006D018461C30079B8044034404440793B8F1000F05DD42460499504600F063FB0490079B002B05DD2946B8
:4040C0001A46504600F05AFB0546109B23B32946049800F0A4FB00281EDA00230A220499504600F0DBF90A9B0BF1FF3B0490002B00F05F81314600230A22504600F0CEF93C
:40410000B9F1000F06463FDC3BE000BF185200000000144000002440059B002B2BDC1E9B022B28DDDDF81490B9F1000F11D129464B460522504600F0B1F90146054604980D
:4041400000F06DFB00280CDC03E0354600E000252E461F9B069C6FEA030B09E03546DDF820B0069B069A5C1C312313700BF1010B05960026F7E00A9BDDF8149023B9069C68
:40418000B2E01E9B022BCFDC002C05DD31462246504600F0F3FA06469FB17168504600F031F90446326906F10C01023292000C30FEF72EFE01222146504600F0DFFA0590CD
:4041C00000E00596029B069F03F00103079329460498FFF7D7FA3146044600F13008049800F01DFB059A02902946504600F033FBC36802463BB901460A90049800F00FFBDF
:404200000A9A034600E00123114650460A9300F02EF90A9B53B91E9A42B9079A32B9B8F1390F2AD0029B002B1CDC1DE0029A002A04DB1BD11E9ACAB9079ABAB9002B13DD59
:4042400001220499504600F099FA2946049000F0E6FA002803DC07D118F0010F04D0B8F1390F0AD004F131087C1C0CE0002B07F101040BDDB8F1390F03D139233B70013736
:4042800056E008F1010887F800806CE0069B2746E31A4B4504F8018C3BD000230A220499504600F0FBF8059B04909E424FF00A024FF000033146504604D100F0EFF8064641
:4042C000059084E700F0EAF8002306460A220599504600F0E3F8059079E700230A220499504600F0DBF8049029460498FFF74AFA069B00F1300804F8018BE31A4B45ECDB99
:40430000069B0596B9F1010FACBF4B4401331F46002601220499504600F030FA2946049000F07DFA002803DC15D118F0010F12D03C4614F8013C621E392B09D1069B93420E
:4043400004D10BF1010B3123069A02E01446F0E70133137007E03C4614F8013C621E302B01D11446F8E72946504600F080F8059B6BB12EB19E4203D03146504600F077F8E3
:404380000599504600F073F801E0DDF820B00499504600F06CF80023209A23700BF101031360229B1BB11C6001E008480AE0069808E0B9F1000F3FF7E2AE1E9B022B7FF7FD
:4043C000DEAEB1E615B0BDE8F08F00BFD8510000004870474C81FF1F024B0146186800F041BB00BF4881FF1F10B5C9B202449042034605D01C7801308C42F8D1184610BD3C
:40440000002010BD70B5456A04460E463DB91020FFF7E2FF6062456085600560C560656AEB6843B1636ADB6853F8260078B1026843F8262017E021220421204600F0B8FA38
:40444000636AE860DB68002BECD1002070BD012101FA06F56A1D9200204600F0A9FA0028F3D04660856000230361C36070BD70B5446A06460D463CB91020FFF7ADFF70622D
:40448000446084600460C4603DB1736A6A68DB6853F82210296043F8225070BD2DE9F04106460C460D691F4601F1140E0023DEF80000013381B202FB0171000C0F0C02FB65
:4044C000007089B201EB00419D424FEA10474EF8041BECDCD7B1A3689D4212DB616830460131FFF78FFF8046226904F10C01023292000C30FEF78CFC21463046FFF7B7FF99
:40450000444604EB850301355F6125612046BDE8F081030C1B0413B90004102300E0002310F07F4F04BF0002083310F0704F04BF0001043310F0404F04BF80000233002897
:4045400003DB420003D5581C70471846704720207047036813F007020BD0D90722D49A074BBF5B089B08036003604CBF01200220704799B209B91B0C102213F0FF0F04BF2E
:404580001B0A0832190704BF1B090432990704BF9B080232D90702D45B0805D00132036010467047002070472020704710B50C460121FFF727FF01224461026110BD2DE963
:4045C000F74F14460A69236988469A42BEBF0B46A0461C46D8F81070D4F81090D8F80830D8F8041007EB09069E42C8BF0131FFF709FF00F114052B4605EB860C0022634555
:4046000002D243F8042BFAE704F1140208F1140102EB890301EB87070093009B0192934257D9B2F800B0BBF1000F23D08946AE464FF0000859F8044BBEF800A0A3B20BFB26
:4046400003A34FEA144ADEF8004043444FEA14480BFB0A84F24604EB13449BB243EA04434F454FEA14484AF8043B01D9D646E1E7CEF80480019B0432B3F802A0BAF1000F6D
:4046800021D02C4689462B684FF00008B9F800E0B4F802B09BB20AFB0EBEA346F04443EA08434BF8043B59F8043BB4F804E01B0C0AFB03E34F4503EB18434FEA134801D94D
:4046C0005C46E3E763600435A7E75CF8043D13B9013E002EF9DC066103B0BDE8F08F00002DE9F843154612F0030206460F4607D0214C013A002354F82220FFF7CFFE07464F
:40470000AD1036D0746A3CB91020FFF765FE7062446084600460C460D6F82480D8F808404CB940F271213046FFF740FF04460023C8F8080003604FF00008EB070AD539464B
:4047400022463046FFF73BFF814639463046FFF78EFE4F466D100CD0206808B10446ECE7224621463046FFF72AFF2060C0F80080F4E73846BDE8F883E05200002DE9F0478D
:404780000C460746914626694FEA621A56444968A368751CAB4202DA01315B00FAE73846FFF730FE002380461A4600F11401534503DA41F823200133F9E72AEAEA73206931
:4047C00001EB830319F01F0904F1140101EB800E14D0C9F1200C002208689A4600FA09F0024343F8042B51F8042B8E4522FA0CF2F2D8CAF8042042B1B51C06E0043B51F86D
:40480000042B8E4543F8042FF9D8013D3846C8F810502146FFF72BFE4046BDE8F08703690A6910B59B1A11D192001430143183180A4453F8044D52F8041D8C4202D007D373
:40484000012010BD9842F4D3002010BD184610BD4FF0FF3010BD2DE9F8430C460746114620461546FFF7DBFF061E08D131463846FFF7C8FD012303614661BDE8F883BCBF07
:4048800023462C4638466168BABF1D4601260026FFF7B8FD2B69C660266905F1140904F1140101EB860709EB830800F114054FF0000C51F8042B59F8044B93B29C44A3B2BD
:4048C000240CC3EB0C03C4EB124202EB23429BB24FEA224CC84543EA02428E4645F8042BE7D8BE450ED25EF8041B8AB26244131403EB114392B242EA03424FEA234C45F8C8
:40490000042BEEE755F8043D0BB9013EFAE70661BDE8F8832DE9F3411C4601219046089E099DFFF76FFDC4F31302C4F30A5407460CB142F480120192B8F1000F19D002A897
:4049400040F8088DFFF705FE009B48B1019AC0F1200102FA01F10B43C2407B61019200E07B61019B002B14BF02210121BB61396107E001A8FFF7EDFD019B01217B613961CE
:40498000203034B1A4F2334404443460C0F1350009E0A0F2324007EB810330601869FFF7B8FDC0EB41102860384602B0BDE8F08138B502FB01F4214600F054F8054618B174
:4049C00022460021FEF72FFA284638BD38B50546002944D051F8043C0C1F002BB8BFE41800F017FA1E4A1368114613B96360146030E0A3420DD92268A018834201BF186886
:404A00005B681218226063600C6023E0A24203D813465A68002AF9D118681918A1420BD12168014458188242196013D110685268014419605A600DE002D90C232B6009E023
:404A400021686018824201BF106852680918216062605C602846BDE8384000F0DBB938BD1482FF1F70B5CD1C25F0030508350C2D38BF0C25002D064601DBA94202D90C2394
:404A8000336046E000F0C5F9234B1C681A462146A1B10B685B1B0ED40B2B03D90B60CC18CD501EE08C420BBF63684B681360636018BF0C4615E00C464968E9E7174C236812
:404AC0001BB9304600F07AF920602946304600F075F9431C18D0C41C24F00304A0420DD12560304600F096F904F10B00231D20F00700C31A0ED05A42E25070BD211A30460C
:404B000000F05CF90130EBD10C233360304600F081F9002070BD00BF1482FF1F1082FF1F2DE9F0478E6882469E420C46914698463ED88A8912F4906F3AD0256809690223E3
:404B40006F1A656905EB450595FBF3F57B1C43449D4238BF1D4653050FD52946FFF782FF064698B13A462169FEF752F9A38923F4906343F08003A38113E02A4600F04BF92D
:404B8000064670B921695046FFF720FF0C23CAF80030A3894FF0FF3043F04003A381BDE8F08726613E44266046466561ED1BA560464528BF464649463246206800F00EF968
:404BC000A36800209B1BA36023681E442660BDE8F08700002DE9F04F9DB003938B8980461C060D4616460DD50B695BB94021FFF739FF2860286118B90C23C8F80030CDE0B8
:404C000040236B610023099320238DF82930DFF89CB130238DF82A3037463C4614F8013B1BB9B7EB060910D003E0252BF9D02746F3E74B46324629464046FFF771FF01308B
:404C400000F0A780099B4B4409933B78002B00F0A08000234FF0FF3204930793059206938DF853301A930126052221784E48FFF7BBFB671C049B38B14B4A3C46801A06FAD2
:404C800000F018430490EFE7D90644BF20228DF853201A0744BF2B228DF8532022782A2A03D0079A00210A200BE0039A111D12680391002A10DA524243F00200079204903F
:404CC0000BE027463B780134303B092B03D800FB02320121F5E701B107923B782E2B1ED17B782A2B0AD1039B02371A1D1B680392002BB8BF4FF0FF33059310E00023194621
:404D00000593781C0A2407463A780130303A092A03D804FB01210123F5E703B10591032239782248FFF760FB40B14023CBEB000003FA00F0049B01371843049039780622DF
:404D40001B487E1C8DF82810FFF74EFB88B1194B33B9039B073323F007030833039314E003AB00932A46144B04A94046FEF7F4F807E003AB00932A460F4B04A94046FEF7B9
:404D8000A5FBB0F1FF3F824603D0099B5344099342E7AB895B0601D4099801E04FF0FF301DB0BDE8F08F00BF185300001E53000022530000592F0000214B000038B5064C4B
:404DC0000023054608462360FCF79AFA431C02D1236803B12B6038BD2C82FF1F884210B501EB020301D8421E0BE09842FBD28118D21AD34204D013F8014D01F8014DF8E7F8
:404E000010BD994204D011F8014B02F8014FF8E710BD70477047F8B5074615460E4621B91146BDE8F840FFF71DBE1AB9FFF7CEFD2846F8BD00F015F885420ED92946384666
:404E4000FFF710FE044650B131462A46FDF7E0FF31463846FFF7BAFD01E03046F8BD2046F8BD51F8040C0028BEBF091851F8043CC0180438704700004FF0FF3C06E000BFCE
:404E80004FF0010C02E000BF4FF0010C4DF804CD4FEA410C7FEA6C5C4FEA430C18BF7FEA6C5C1BD001B050EA410C0CBF52EA430C91EA030F02BF90EA020F0020704710F132
:404EC000000F91EA030F58BF994208BF90422CBFD8176FEAE37040F0010070474FEA410C7FEA6C5C02D150EA013C07D14FEA430C7FEA6C5CD6D152EA033CD3D05DF8040B62
:404F0000704700BF8446104662468C461946634600E000BF01B5FFF7B7FF002848BF10F1000F01BD4DF808EDFFF7F4FF0CBF012000205DF808FB00BF4DF808EDFFF7EAFFFC
:404F400034BF012000205DF808FB00BF4DF808EDFFF7E0FF94BF012000205DF808FB00BF4DF808EDFFF7CEFF94BF012000205DF808FB00BF4DF808EDFFF7C4FF34BF01207D
:404F800000205DF808FB00BF4FEA410C7FEA6C5C02D150EA013C0AD14FEA430C7FEA6C5C02D152EA033C02D14FF0000070474FF0010070470000000053656E736F7220314C
:404FC0003A20252E32660A0053656E736F7220323A20252E32660A0A000000004E6F7720696E2049444C452053746174650A0A000A446973743A2025642E253032640A00FB
:405000000A4572726F723A2025640A000A50574D206D61737465723A2025640A2050574D20736C6176653A2025640A0049522053656E736F722044657465637465642E0AED
:40504000000000004D6F766520737472616967687420434F4D504C4554452E0A000000005475726E20434F4D504C4554452E200A000000004E6F7720696E2052455455520B
:405080004E204241434B2053746174650A0A0A004C696D69742053776974636820547269676765726564200A0000000072656400677265656E000000626C756500000000C6
:4050C000636C656172000000436C6561723A2025640A00005265643A2025640A00000000426C75653A2025640A000000477265656E3A2025640A0A004E6F7720696E2050D5
:4051000055434B2048414E444C494E472046756E6374696F6E0A0A004E6F7720696E205A4F4E4520352053746174650A000000004E6F7720696E205A4F4E452037205374E1
:405140006174650A000000004E6F7720696E205A4F4E4520362053746174650A000000004E6F7720696E205A4F4E4520382053746174650A00000000004F004018004051A1
:4051800000403000000001400010801401400006001B0140000100400140000A004C0140000200500140200060520040541000480600001401405C1000488000801A014023
:4051C000DC10004880004300494E4600696E66004E414E006E616E00300030313233343536373839414243444546003031323334353637383961626364656600496E6669CA
:405200006E697479004E614E00504F534958002E0000000000000000000000000000F03F000000000000244000000000000059400000000000408F40000000000088C34026
:4052400000000000006AF8400000000080842E4100000000D01263410000000084D797410000000065CDCD41000000205FA00242000000E876483742000000A2941A6D429F
:40528000000040E59C30A2420000901EC4BCD64200003426F56B0C430080E03779C3414300A0D8855734764300C84E676DC1AB43003D9160E458E143408CB5781DAF1544ED
:4052C00050EFE2D6E41A4B4492D54D06CFF08044F64AE1C7022DB544B49DD9794378EA4405000000190000007D000000000000000080E03779C34143176E05B5B5B89346DA
:40530000F5F93FE9034F384D321D30F94877825A3CBF737FDD4F1575232D302B2000686C4C0065666745464700000000F8B500BFF8BC08BC9E4670474D0000007D1300007F
:40534000F8B500BFF8BC08BC9E4670472900000060530000C880FF1FC0000000A80000000000000001000000010000003082FF1F0000E02EC05D00001800000000366E014A
:405380000000000000000000000000000000000000000000000000000000000000000000C651000000000000000000000000000000000000000000000000000000000000D6
:4053C0000000000000000000000000000000000000000000000000000000000000000000E880FF1F0F5200001D5300001D5300001D5300001D5300001D5300001D53000026
:405400001D5300001D5300001D530000FFFFFFFFFFFFFFFFFFFFFFFFFFFF00000000000000000000000000000000000000000000000000000000000000000000000000002A
:40544000000000000000000000000000000000000000000000000000000000000000000000000000000000000000000000000000000000000000000000000000000000002C
:4054800000000000000000000000000000000000000000000000000000000000000000000000000000000000000000000000000000000000000000000000000000000000EC
:4054C00000000000000000000000000000000000000000000000000000000000000000000000000000000000000000000000000000000000000000000000000000000000AC
:40550000000000000000000000000000000000000000000000000000000000000000000000000000000000000000000000000000000000000000000000000000000000006B
:020000040003F7
:0200000480007A
:40000000024F0040035200400764004005650040450001403D0101406C0201405403014049040140480501405206014051070140640801404E090140600A0140410B01402E
:400040005A0C0140590D01405F0E0140330F0140261401405F1501405F16014053170140531801404A1901401D1A0140561B0140074001400D4101400D42014014430140B7
:400080000244014009450140064601400147014004480140074901400C4C0140064D014008500140035101400A4B1627080409041801800F816F850F860D890D8D0F8F6F01
:4000C000840D8677870F88388B7203080403061C08030A040D020E151104142A16141B021C031D011E3422202502262829083308340F35063638370139223AA03F45402512
:40010000410145EC470B481349FF4AFF4BFF4EF04F44500C5401580459045A045B045C115D115F0166C06A406B0288018C0392049604A003A208A404AC08AF01B002B1014F
:40014000B201B408B604B80ABE54D40FD804D904DB04DF05002401200202048007080A210BC00E400F1010801220150216A0174018041A071B101C401D081E481F40200828
:40018000210422A02380274028082A202B102E80325239803B0241404205487049024A02520859625A085D805E085F21650866107F2087808C408F20C0C7C235C4BCCA163E
:4001C000CC0DCE09D00CD208D6FFD860DE4003020530070808100D200E100F04130114021530160C170418021A041C1020042202233C251C2802292C2A052B10301031025B
:40020000320133013408353C36063A803E014023410649FF4AFF4BFF4DA04F015018580459045A045F016040628064406540668068406A806C406D206E80859E876089FDDA
:400240008B028C37906C920295CF9730985B99739A04A130A3C9A408A601AA0FAB0FAC6CAD94AE01AF60B00FB670B7FFB880BF40C023C106C54EC6C2C730C82FC9FFCAFF26
:40028000CBFFCDAFCE07CF01D018D804D904DA04DF01E040E280E440E540E680E840EA80EC40ED20EE8001800440052008100A400E180F02112412011501172019801A407F
:4002C0001D021E181F8022802404276029202A802B822D012E202FA0312033243705380439203A203B083C063E80410842084508460849084B124D204F105040514152108C
:40030000858088088B018D408E408F019040920693409480950296A897139A019C189D489E109F08A064A108A208A480A602A720AA01AD84B010B680C0C1C2EAC457CAED5F
:40034000CCC6CED6D066D224E008E602EA040412050E06200710093D0C40120614381506160517201821193B1A181C191E221F4020202120260128282B382D082E012F1003
:40038000303E337834403507360139203E50580459045C015F0180048208850C8702890B8B048C048E088F10950798029B209C089E04A108A202A301A603A804A90CAA08EC
:4003C000AB01AF0FB00CB202B310B401B50FB720BA02BE04D280D40FD804D904DB04DF010088068007410A660E080F0210A0120A15081640171019401AC81D041E081F03EE
:40040000212023182404271529202B832F85312032803304371839203B083C043EA05E015F68650466087640844089028B2092069348952496A8971199A09A219B409C10B4
:400440009D409E089F0CA064A102A288A380A480A530A602A702B001B301C095C2CFC47FCABDCC6ECE76D6F0E280E648E880EC20060107010A180F06101815021B091E04E8
:40048000200C25082A012E02300131023202330134103504360C37083D803E113F01528054055604580459045B045C225D205F058163830C855A860C8725896F8B10942C93
:4004C000957C96039703983199379A069C319E0EA125A208A34AA613AB10B20FB370B430B50FB820BA08BE10C006C604C9FFCA07CBFFCC40CD20CEF0CF05D008D280D804BD
:40050000D904DA04DB04DC01DD21DF01E040E1A8E240E320000802800340040406040A260D020E0210A015011608174119101A201C401D041E0A211424802504264027088F
:400540002A202B802F10312033043620370839203B0A3C844104422048204910508058805C085E805F016780728074017D0181108201842087409206930A952C962098404B
:4005800099809A019B049C10A004A120A380A480A510A602AB01AE21C064C297C4DCCA45CC66CE57D204D6D8D880DE80E004E201E60EEA03EE05000101730610070F084077
:4005C00009CF0B300D9E0E030F6010041208141C1594176019FD1A1C1B021C1C224024042530260827C928102E20304031FF3201343C36023E053F01405649FF4AFF4BFFAC
:400600004F015018580459045A045F016040624064406540668068806A806C806E808110830384018518870289148B018F0F974099209D109F0CA320A920AA02AE02B00164
:40064000B11FB320B602B740BE40BF04C056C9FFCAFFCBFFCD83CE03CF01D018D401D604D804D904DA04DB04DC03DF01E040E240E440E540E680E880EA80EC80EE8002207A
:400680000481051006200E65100A1688174419801B011C011D201E141F02204022042301274029102B802E082F10312032803308342036103704384439023B103D013E6532
:4006C000480A4C0B598563406401670178807B0280408240830486048740908091019302941495029610973099159AA09B059C819D02A008A380A402A560A680A710A9828F
:40070000AA10AD08B004B240C0F4C2F0C4F3CA45CC6ECEFFD23CD60BD801016803110444051C0691072109120B2C12781510176018011A061C831E181F07208622612824E3
:400740002A892D582F0230F833703407370F3A203B08405645EC4702481349FF4AFF4BFF4D834E034F015018580459045A045F016040624064406540668068806A806C8062
:400780006E80801882068301841F8A208B118D028E408F049040910293049501962099049A409B029C069E19A280A408A602A801AA06AC04AD02AE10AF0CB020B101B24000
:4007C000B310B480B506B61FB708BB20BE05BF01D280D804D904DB04DF010004041A06020A480B010D200E810F2012C013101540168017281A481C081D101E011F0521885A
:40080000261427452A422B802C01318836143701380439023B113C023DA0480A49055008740187048A048E40908A9141960197209AA09B289C809F40A110A380A520A610E0
:40084000AB01AC08B104B210C0F4C2FBC4FACA18CCEACEB7D20CE280E640EA030E0A120414061A01220A26023006320136083E4040354106420249FF4AFF4BFF4F01501893
:4008800058045A045B045F016040624064406540668068806A806C806E80813F853F86228B3F8C228DB88E118F47911292309540970799099BC09C049E089FC0A124A2085B
:4008C000A604A980AA11AB38B003B3C0B40CB53FB630BE10BF04C065C102C203C5ECC720C823C9FFCAFFCBFFCD83CE03CF01D018D403D604D804D904DA04DB04DF05E040A7
:40090000E240E440E540E680E880EA80EC80EE8002100301058009420E400F2810081104130114101502180C19801A821B101D401E401F0520082108221023202A113018A7
:400940003251380439A03B024004410844104720480449054A024E024F20510152035955634069806B016D807B10840485018640874089128B048C408E208F44900291407B
:40098000940495019601972099109A809B089C849E409F40A112A380A528A610A740AA08B004B721C085C279C43ECA05CC0FCE0FD066D23CD60FD801DE02E040E280E45059
:4009C000E86004FF0C500EA8140116FE1C321EC4243426C22C5E2EA134F0360F4013410249FF4AFF4BFF4DA04F015018528358045A045B045F01604062806440654066802A
:400A000068406A806C406D206E808001830385AC87508B408DF08F04900891029570978899A09B049C03A403A580A60CA73CA9DCB004B101B201B33CB408B5E0B602B7029D
:400A4000B888BE14BF40C013C102C52CC634C70EC81FC9FFCAFFCBFFCDAFCE07CF01D018D40FD804D904DA04DB04DF05E040E280E440E540E680E840EA80EC40ED20EE801D
:400A800000040140064009080A010E400F01120113081620180219101E581F802510260927022C042F10361938023A013C083D203F81412042104344452047444F0556A8D8
:400AC0005C805E085F226608670469406B0871027D01C015C295C425CA60CCE0CEF0D07ED6F0D860DE80830287019102950299019A019F02B101B401B502BF10C014C10269
:400B0000C5D1C702C813C9FFCAFFCBFFCDAFCE0FCF04D018D804D904DA04DC32DD02DF01E040E2C0E440E540E6C0E8C0EAC0ECC0EEC00004018008040A060F081050112002
:400B40001201180419121A021F10211022082312250127042AA630803108320233203524368139403B103C023F044208430245404608470148024E204F09560858025A8806
:400B8000608071017D807F02814182248682870288D089028A028C028D088E88928C9304952096029721980499A49A019B019C809D119E089F04A003A110A201A322A6A0E5
:400BC000ADB1AF08B081B114B201B314B402B512C005C247C40FCA0FCCFFCECCD0B5D208D60BD801E040E207E402E60CE802EE0207080A040F131304140219111A03250266
:400C0000271029082D012F123004310C32013310340235033B083D283E103F0140344105420249FF4AFF4BFF4DA04F0150185417580459045A045B045C225D225F056040F2
:400C4000628064406540668068406A506BA86C406D206E506FA881048B01920193029D04AF01B301B401B502B704BF04C031C105C206C55EC6C2C81FC9FFCAFFCBFFCDAFD0
:400C8000CE07CF01D018D40FD804D904DA04DB04DC30DD02DF01E040E280E440E540E680E840EA50EBA8EC40ED20EE50EFA804C0060408020D080F081A041C081D2A1F089B
:400CC0002244230424042501276028012E082F0A30103151372139123D083E803F08434445214704484449084A024E0250805214586059025B085C405E085F10650866505A
:400D00006C026D806F017D80800483028520864287209080940495049721986499C49A819C909E0C9F01A001A114A205A440A502A6A0A868AA02AC04B140C040C268CA7854
:400D4000CCA9CE55D0EAD21CD67FD870DE10E608EA08EC400001020A070108030E0413021402160928032F01300C3203330137023E013F04406541034202440446C0470E95
:400D8000481849FF4AFF4BFF4C624DA04EF04F41500C5418580459045A045B045C015D115F016640670269106A306B106D106E106F12813B82E083448488854C86558723C6
:400DC000881089458B3A8C1F8E208F0194469510962999409B049C1E9D5D9E819F22A002A401A902AB20AE08B0E4B160B31FB41FB703D804D904DB04DF0100440102030458
:400E00000420058006800B110E1010021210130A1510180419021D021E101F04204021012280231125442A102C013020328033043701380439423B103C183D204410451235
:400E40004E09540457105E0266206702682069406B086C026F048302870493029416950297309B019C209D02A540A6A0A710AE20B301B708C0DFC225C44DCA14CC8ECE4FD5
:400E8000D0E0D230D680D830E601EA80EC4007012A01360137014020410549FF4AFF4BFF4DA04F0450185280580459045A045B045C015D035F01604062C06440654066C044
:400EC00068C06AC06CC06EC004010580062207080D020E1512041506160117101A011C101E461F1023022401261827112C122E622F10354037113B083E183F414131424073
:400F0000452148014E60540155015E206C106D906F2070017540762977088001833085548601874088028A048B068D828EC48F01912092109432951096029C109D809E80AD
:400F4000A401A629AC01AE20B001B110B310B420B504B620C0F0C2F0C4F2CAF0CCB0CEF2D0A4D208D620E080E230E440E6B0E860EA90EC20311136283B408701CCF0CE1061
:400F8000E24008400C20328435043780862097409B019D11A628C2C0CCF0E64051085B018A048D01960897409B019D159F80A688B060D420D64019011D087701811086082B
:400FC000874097409B019D10A508A608A904AA80AF80C630DC40E210E660EA40EEA07F01DE040010052009020B040D08B701C003C20EE8029010A908AF04B122EA04EE04F5
:40100000901087019B01B501E0400602570883088E02C080D440E68008800D805402801090109C80A002B482C203D604EA08EC0210208C20B580C408E608EA08000F0803F5
:401040000A070C090E01100F1A0F1C0B00FF01FF020300008008000040000000000000000F00000000010006070F0000001000000C0203011004600125001A10100F2000AF
:401080001000201003100C000A080500400000070F1030080020800000000000450200000000000000FFFFFF00A00004180080000500040004040404103200014000C000A0
:4010C0004040C000C000C000C000C0000000000000000000000000000000000070088700600200002010000003000019113E000102000000FF39000600041000F0180B004C
:40110000003F8F009F066000402600197C00E01E0020030700002288000000102004000000D1002023FFFFFF00AF0F04180000000000021104040404111300014000C000A8
:401140004040C000C000C000C000C00000000000000000000000000000000000C03F3F0000000000800040888800880000000000030000030000000000000000C03F3F0055
:40118000040000000500502F2A000000000000000805050001000000000000000000000000000000000000000000000000000000000000000000000000000000000000006A
:4011C00000000000000000000000000000000000000000000000000000000000000000000000000000000000000000000000000000000000000000000000000000000000EF
:4012000000000000000000000000000000000000000000000000000000000000000000000000000000000000000000000000000000000000000000000000000000000000AE
:40124000000000000000000000000000000000000000000000000000000000000000000000000000000000000000000000000000000000000000000000000000000000006E
:40128000000000000000000000000000000000000000000000000000000000000000000000000000000000000000000000000000000000000000000000000000000000002E
:0200000490006A
:0400000000004005B7
:0200000490105A
:04000000BC90ACAF55
:0200000490303A
:020000009B2142
:0200000490402A
:4000000000000000000000000000000000000000000000000000000000000000000000000000000000000000000000000000000000000000000000000000000000000000C0
:400040000000000000000000000000000000000000000000000000000000000000000000000000000000000000000000000000000000000000000000000000000000000080
:400080000000000000000000000000000000000000000000000000000000000000000000000000000000000000000000000000000000000000000000000000000000000040
:4000C0000000000000000000000000000000000000000000000000000000000000000000000000000000000000000000000000000000000000000000000000000000000000
:0200000490501A
:0C00000000012E16106900012E3CAB8A96
:00000001FF